{
  "_format": "hh-sol-artifact-1",
  "contractName": "Transactions",
  "sourceName": "contracts/Greeter.sol",
  "abi": [
    {
      "anonymous": false,
      "inputs": [
        {
          "indexed": false,
          "internalType": "address",
          "name": "from",
          "type": "address"
        },
        {
          "indexed": false,
          "internalType": "address",
          "name": "receiver",
          "type": "address"
        },
        {
          "indexed": false,
          "internalType": "uint256",
          "name": "amount",
          "type": "uint256"
        },
        {
          "indexed": false,
          "internalType": "string",
          "name": "message",
          "type": "string"
        },
        {
          "indexed": false,
          "internalType": "uint256",
          "name": "timestamp",
          "type": "uint256"
        },
        {
          "indexed": false,
          "internalType": "string",
          "name": "keyword",
          "type": "string"
        }
      ],
      "name": "Transfer",
      "type": "event"
    },
    {
      "inputs": [
        {
          "internalType": "address payable",
          "name": "receiver",
          "type": "address"
        },
        {
          "internalType": "uint256",
          "name": "amount",
          "type": "uint256"
        },
        {
          "internalType": "string",
          "name": "message",
          "type": "string"
        },
        {
          "internalType": "string",
          "name": "keyword",
          "type": "string"
        }
      ],
      "name": "addToBlockChain",
      "outputs": [],
      "stateMutability": "nonpayable",
      "type": "function"
    },
    {
      "inputs": [],
      "name": "getAllTransactions",
      "outputs": [
        {
          "components": [
            {
              "internalType": "address",
              "name": "sender",
              "type": "address"
            },
            {
              "internalType": "address",
              "name": "receiver",
              "type": "address"
            },
            {
              "internalType": "uint256",
              "name": "amount",
              "type": "uint256"
            },
            {
              "internalType": "string",
              "name": "message",
              "type": "string"
            },
            {
              "internalType": "uint256",
              "name": "timestamp",
              "type": "uint256"
            },
            {
              "internalType": "string",
              "name": "keyword",
              "type": "string"
            }
          ],
          "internalType": "struct Transactions.TransferStruct[]",
          "name": "",
          "type": "tuple[]"
        }
      ],
      "stateMutability": "view",
      "type": "function"
    },
    {
      "inputs": [],
      "name": "getTransactionCount",
      "outputs": [
        {
          "internalType": "uint256",
          "name": "",
          "type": "uint256"
        }
      ],
      "stateMutability": "view",
      "type": "function"
    }
  ],
  "bytecode": "0x608060405234801561001057600080fd5b50610ade806100206000396000f3fe608060405234801561001057600080fd5b50600436106100415760003560e01c806327506f53146100465780632e7700f014610064578063b2da096014610082575b600080fd5b61004e61009e565b60405161005b91906108a7565b60405180910390f35b61006c610301565b60405161007991906108c9565b60405180910390f35b61009c600480360381019061009791906105de565b61030a565b005b60606001805480602002602001604051908101604052809291908181526020016000905b828210156102f857838290600052602060002090600602016040518060c00160405290816000820160009054906101000a900473ffffffffffffffffffffffffffffffffffffffff1673ffffffffffffffffffffffffffffffffffffffff1673ffffffffffffffffffffffffffffffffffffffff1681526020016001820160009054906101000a900473ffffffffffffffffffffffffffffffffffffffff1673ffffffffffffffffffffffffffffffffffffffff1673ffffffffffffffffffffffffffffffffffffffff16815260200160028201548152602001600382018054600181600116156101000203166002900480601f0160208091040260200160405190810160405280929190818152602001828054600181600116156101000203166002900480156102345780601f1061020957610100808354040283529160200191610234565b820191906000526020600020905b81548152906001019060200180831161021757829003601f168201915b5050505050815260200160048201548152602001600582018054600181600116156101000203166002900480601f0160208091040260200160405190810160405280929190818152602001828054600181600116156101000203166002900480156102e05780601f106102b5576101008083540402835291602001916102e0565b820191906000526020600020905b8154815290600101906020018083116102c357829003601f168201915b505050505081525050815260200190600101906100c2565b50505050905090565b60008054905090565b6001600080828254019250508190555060016040518060c001604052803373ffffffffffffffffffffffffffffffffffffffff1681526020018673ffffffffffffffffffffffffffffffffffffffff16815260200185815260200184815260200142815260200183815250908060018154018082558091505060019003906000526020600020906006020160009091909190915060008201518160000160006101000a81548173ffffffffffffffffffffffffffffffffffffffff021916908373ffffffffffffffffffffffffffffffffffffffff16021790555060208201518160010160006101000a81548173ffffffffffffffffffffffffffffffffffffffff021916908373ffffffffffffffffffffffffffffffffffffffff1602179055506040820151816002015560608201518160030190805190602001906104529291906104c3565b506080820151816004015560a08201518160050190805190602001906104799291906104c3565b5050507f416cfa4330a4565f45c2fd2dd4826a83a37443aba2ce6f79477c7355afac35fa3385858542866040516104b596959493929190610838565b60405180910390a150505050565b828054600181600116156101000203166002900490600052602060002090601f016020900481019282601f1061050457805160ff1916838001178555610532565b82800160010185558215610532579182015b82811115610531578251825591602001919060010190610516565b5b50905061053f9190610543565b5090565b5b8082111561055c576000816000905550600101610544565b5090565b60008135905061056f81610a7a565b92915050565b600082601f83011261058657600080fd5b813561059961059482610911565b6108e4565b915080825260208301602083018583830111156105b557600080fd5b6105c0838284610a27565b50505092915050565b6000813590506105d881610a91565b92915050565b600080600080608085870312156105f457600080fd5b600061060287828801610560565b9450506020610613878288016105c9565b935050604085013567ffffffffffffffff81111561063057600080fd5b61063c87828801610575565b925050606085013567ffffffffffffffff81111561065957600080fd5b61066587828801610575565b91505092959194509250565b600061067d838361078a565b905092915050565b61068e816109f1565b82525050565b61069d816109a3565b82525050565b60006106ae8261094d565b6106b88185610970565b9350836020820285016106ca8561093d565b8060005b8581101561070657848403895281516106e78582610671565b94506106f283610963565b925060208a019950506001810190506106ce565b50829750879550505050505092915050565b600061072382610958565b61072d8185610981565b935061073d818560208601610a36565b61074681610a69565b840191505092915050565b600061075c82610958565b6107668185610992565b9350610776818560208601610a36565b61077f81610a69565b840191505092915050565b600060c0830160008301516107a26000860182610694565b5060208301516107b56020860182610694565b5060408301516107c8604086018261081a565b50606083015184820360608601526107e08282610718565b91505060808301516107f5608086018261081a565b5060a083015184820360a086015261080d8282610718565b9150508091505092915050565b610823816109e7565b82525050565b610832816109e7565b82525050565b600060c08201905061084d6000830189610685565b61085a6020830188610685565b6108676040830187610829565b81810360608301526108798186610751565b90506108886080830185610829565b81810360a083015261089a8184610751565b9050979650505050505050565b600060208201905081810360008301526108c181846106a3565b905092915050565b60006020820190506108de6000830184610829565b92915050565b6000604051905081810181811067ffffffffffffffff8211171561090757600080fd5b8060405250919050565b600067ffffffffffffffff82111561092857600080fd5b601f19601f8301169050602081019050919050565b6000819050602082019050919050565b600081519050919050565b600081519050919050565b6000602082019050919050565b600082825260208201905092915050565b600082825260208201905092915050565b600082825260208201905092915050565b60006109ae826109c7565b9050919050565b60006109c0826109c7565b9050919050565b600073ffffffffffffffffffffffffffffffffffffffff82169050919050565b6000819050919050565b60006109fc82610a03565b9050919050565b6000610a0e82610a15565b9050919050565b6000610a20826109c7565b9050919050565b82818337600083830152505050565b60005b83811015610a54578082015181840152602081019050610a39565b83811115610a63576000848401525b50505050565b6000601f19601f8301169050919050565b610a83816109b5565b8114610a8e57600080fd5b50565b610a9a816109e7565b8114610aa557600080fd5b5056fea26469706673582212201cc1da29d38ca76b2fa6726412a0200f50a1dd98d100151ace463498f5d574eb64736f6c63430007000033",
  "deployedBytecode": "0x60806040523zz4801561001057600080fd5b50600436106100415760003560e01c806327506f53146100465780632e7700f014610064578063b2da096014610082575b600080fd5b61004e61009e565b60405161005b91906108a7565b60405180910390f35b61006c610301565b60405161007991906108c9565b60405180910390f35b61009c600480360381019061009791906105de565b61030a565b005b60606001805480602002602001604051908101604052809291908181526020016000905b828210156102f857838290600052602060002090600602016040518060c00160405290816000820160009054906101000a900473ffffffffffffffffffffffffffffffffffffffff1673ffffffffffffffffffffffffffffffffffffffff1673ffffffffffffffffffffffffffffffffffffffff1681526020016001820160009054906101000a900473ffffffffffffffffffffffffffffffffffffffff1673ffffffffffffffffffffffffffffffffffffffff1673ffffffffffffffffffffffffffffffffffffffff16815260200160028201548152602001600382018054600181600116156101000203166002900480601f0160208091040260200160405190810160405280929190818152602001828054600181600116156101000203166002900480156102345780601f1061020957610100808354040283529160200191610234565b820191906000526020600020905b81548152906001019060200180831161021757829003601f168201915b5050505050815260200160048201548152602001600582018054600181600116156101000203166002900480601f0160208091040260200160405190810160405280929190818152602001828054600181600116156101000203166002900480156102e05780601f106102b5576101008083540402835291602001916102e0565b820191906000526020600020905b8154815290600101906020018083116102c357829003601f168201915b505050505081525050815260200190600101906100c2565b50505050905090565b60008054905090565b6001600080828254019250508190555060016040518060c001604052803373ffffffffffffffffffffffffffffffffffffffff1681526020018673ffffffffffffffffffffffffffffffffffffffff16815260200185815260200184815260200142815260200183815250908060018154018082558091505060019003906000526020600020906006020160009091909190915060008201518160000160006101000a81548173ffffffffffffffffffffffffffffffffffffffff021916908373ffffffffffffffffffffffffffffffffffffffff16021790555060208201518160010160006101000a81548173ffffffffffffffffffffffffffffffffffffffff021916908373ffffffffffffffffffffffffffffffffffffffff1602179055506040820151816002015560608201518160030190805190602001906104529291906104c3565b506080820151816004015560a08201518160050190805190602001906104799291906104c3565b5050507f416cfa4330a4565f45c2fd2dd4826a83a37443aba2ce6f79477c7355afac35fa3385858542866040516104b596959493929190610838565b60405180910390a150505050565b828054600181600116156101000203166002900490600052602060002090601f016020900481019282601f1061050457805160ff1916838001178555610532565b82800160010185558215610532579182015b82811115610531578251825591602001919060010190610516565b5b50905061053f9190610543565b5090565b5b8082111561055c576000816000905550600101610544565b5090565b60008135905061056f81610a7a565b92915050565b600082601f83011261058657600080fd5b813561059961059482610911565b6108e4565b915080825260208301602083018583830111156105b557600080fd5b6105c0838284610a27565b50505092915050565b6000813590506105d881610a91565b92915050565b600080600080608085870312156105f457600080fd5b600061060287828801610560565b9450506020610613878288016105c9565b935050604085013567ffffffffffffffff81111561063057600080fd5b61063c87828801610575565b925050606085013567ffffffffffffffff81111561065957600080fd5b61066587828801610575565b91505092959194509250565b600061067d838361078a565b905092915050565b61068e816109f1565b82525050565b61069d816109a3565b82525050565b60006106ae8261094d565b6106b88185610970565b9350836020820285016106ca8561093d565b8060005b8581101561070657848403895281516106e78582610671565b94506106f283610963565b925060208a019950506001810190506106ce565b50829750879550505050505092915050565b600061072382610958565b61072d8185610981565b935061073d818560208601610a36565b61074681610a69565b840191505092915050565b600061075c82610958565b6107668185610992565b9350610776818560208601610a36565b61077f81610a69565b840191505092915050565b600060c0830160008301516107a26000860182610694565b5060208301516107b56020860182610694565b5060408301516107c8604086018261081a565b50606083015184820360608601526107e08282610718565b91505060808301516107f5608086018261081a565b5060a083015184820360a086015261080d8282610718565b9150508091505092915050565b610823816109e7565b82525050565b610832816109e7565b82525050565b600060c08201905061084d6000830189610685565b61085a6020830188610685565b6108676040830187610829565b81810360608301526108798186610751565b90506108886080830185610829565b81810360a083015261089a8184610751565b9050979650505050505050565b600060208201905081810360008301526108c181846106a3565b905092915050565b60006020820190506108de6000830184610829565b92915050565b6000604051905081810181811067ffffffffffffffff8211171561090757600080fd5b8060405250919050565b600067ffffffffffffffff82111561092857600080fd5b601f19601f8301169050602081019050919050565b6000819050602082019050919050565b600081519050919050565b600081519050919050565b6000602082019050919050565b600082825260208201905092915050565b600082825260208201905092915050565b600082825260208201905092915050565b60006109ae826109c7565b9050919050565b60006109c0826109c7565b9050919050565b600073ffffffffffffffffffffffffffffffffffffffff82169050919050565b6000819050919050565b60006109fc82610a03565b9050919050565b6000610a0e82610a15565b9050919050565b6000610a20826109c7565b9050919050565b82818337600083830152505050565b60005b83811015610a54578082015181840152602081019050610a39565b83811115610a63576000848401525b50505050565b6000601f19601f8301169050919050565b610a83816109b5565b8114610a8e57600080fd5b50565b610a9a816109e7565b8114610aa557600080fd5b5056fea26469706673582212201cc1da29d38ca76b2fa6726412a0200f50a1dd98d100151ace463498f5d574eb64736f6c63430007000033",
  "linkReferences": {},
  "deployedLinkReferences": {}
}